:100000000AC01AC018C017C016C015C014C013C04B
:1000100012C011C010C011271FBFCFE5D0E0DEBF56
:10002000CDBF20E0A0E4B0E001C01D93AA34B20728
:10003000E1F70BD0A6C0E4CF4F935F9341E050E0CF
:1000400059A948A95F914F91189548ED4CBF16BF2B
:1000500042E34EBD4AE14DBD4FEF53E055BD44BDB7
:1000600053BD42BD4FEF51E057BD46BD43E041B9DE
:1000700044E043B9789441E043BBA99A81E090E021
:10008000A1E0B0E0C2E048A159A1452BE1F019A9D7
:1000900018A917A916A94AE64A95F1F700C060B158
:1000A000647044A155A14117510739F5662349F001
:1000B000A4A9B5A917A916A913A912A911A910A92C
:1000C00002C0C4A915A90AB501FF09C046A157A1DC
:1000D0004F5F5F4F57A946A94AB544604ABD46A144
:1000E00057A1433051077CF215A914A917A916A9E5
:1000F00013A912A911A910A9C6CF41305107C1F403
:1001000042B14E7042B9662351F045E34A95F1F78A
:100110000000109A45ED4A95F1F70000D4CF45ED67
:100120004A95F1F70000109A45E34A95F1F7F5CFAB
:100130004230510741F642A153A1662371F060A1FC
:1001400071A1F92FE82F042F02C0EE0FFF1F0A95AF
:10015000E2F76E2B7F2B71A960A94F5F5F4F53A908
:1001600042A9473051070CF4AECF40A151A163E042
:10017000440F551F6A95E1F755BD44BD15A914A953
:0601800099CFF894FFCFB7
:00000001FF
