:100000000AC019C018C017C016C015C014C013C04C
:1000100012C011C010C011271FBFCFE5D0E0DEBF56
:10002000CDBF20E0A0E4B0E001C01D93AA34B20728
:10003000E1F73FD098C0E4CF42E34EBD4AE14DBD69
:1000400015BD14BD4FE750E053BD42BD4FE350E036
:1000500057BD46BD46E041B943E043B9789441E01D
:1000600043BBA99A40BB089517A916A919A918A9B5
:1000700013A912A915A914A911A910A90895892BCA
:1000800061F042B14B7042B946E04A95F1F700C0C9
:10009000129A4CE34A95F1F7089542B14B7042B978
:1000A00042E34A95F1F7129A40E14A95F1F700C010
:1000B0000895C2DFA09B43C0A09A19A918A941E2E4
:1000C0004A95F1F7000040B14170C42F40E0D42FB1
:1000D000D5A9C4A946A157A14117510761F4CD2B59
:1000E00029F041E050E057A946A929C042E050E07C
:1000F00057A946A924C04130510721F48C2F9D2FC8
:10010000BEDF1DC042305107D1F442A153A18C2F54
:100110009D2F042F02C0880F991F0A95E2F760A156
:1001200071A1682B792B71A960A94F5F5F4F53A90B
:1001300042A9473051071CF075BD64BD95DF0AB573
:1001400001FF09C048A159A14F5F5F4F59A948A9B4
:100150004AB544604ABD48A159A1453051070CF445
:0A016000A9CF82DFA7CFF894FFCFEC
:00000001FF
