:100000000AC061C018C017C016C015C014C013C004
:1000100012C011C010C011271FBFCFE5D0E0DEBF56
:10002000CDBF20E0A0E4B0E001C01D93AB34B20727
:10003000E1F75BD0B3C0E4CF42E34EBD4AE14DBD32
:1000400015BD14BD4FE750E053BD42BD4FE350E036
:1000500057BD46BD43E041B944E043B9789441E01F
:1000600043BBA99A089518A917A91AA919A915A9EE
:1000700014A916A913A912A9089541E050E058A99E
:1000800047A91AA919A915A914A916A913A912A94A
:100090000895882361F042B14E7042B946E04A9516
:1000A000F1F700C0109A4CE34A95F1F7089542B178
:1000B0004E7042B94CE34A95F1F7109A46E04A95E2
:1000C000F1F700C008951F930F930FB70F9310E03F
:1000D0004F935F9341E050E051A940A95F914F9148
:1000E0000F910FBF0F911F911895A6DF40A151A14D
:1000F000452B09F43FC011A910A91AA919A940E17B
:100100004A95F1F700C080B1847086A947A158A133
:100110004117510749F4882311F0AFDF2BC042E0AB
:1001200050E058A947A926C04130510711F4B1DF6A
:1001300021C042305107F1F4882371F041E050E0D2
:1001400004A102C0440F551F0A95E2F762A173A1F2
:10015000462B572B53A942A944A155A14F5F5F4F8E
:1001600055A944A9473051072CF042A153A155BDD0
:1001700044BD79DF0AB501FF09C049A15AA14F5F0B
:100180005F4F5AA949A94AB544604ABD49A15AA13D
:10019000443F51400CF4AACF66DFA8CFF894FFCFBC
:00000001FF
